{
  "_format": "hh-sol-artifact-1",
  "contractName": "Token",
  "sourceName": "contracts/Token.sol",
  "abi": [
    {
      "inputs": [
        {
          "internalType": "string",
          "name": "_name",
          "type": "string"
        },
        {
          "internalType": "string",
          "name": "_symbol",
          "type": "string"
        }
      ],
      "stateMutability": "nonpayable",
      "type": "constructor"
    },
    {
      "anonymous": false,
      "inputs": [
        {
          "indexed": true,
          "internalType": "address",
          "name": "owner",
          "type": "address"
        },
        {
          "indexed": true,
          "internalType": "address",
          "name": "approved",
          "type": "address"
        },
        {
          "indexed": true,
          "internalType": "uint256",
          "name": "tokenId",
          "type": "uint256"
        }
      ],
      "name": "Approval",
      "type": "event"
    },
    {
      "anonymous": false,
      "inputs": [
        {
          "indexed": true,
          "internalType": "address",
          "name": "owner",
          "type": "address"
        },
        {
          "indexed": true,
          "internalType": "address",
          "name": "operator",
          "type": "address"
        },
        {
          "indexed": false,
          "internalType": "bool",
          "name": "approved",
          "type": "bool"
        }
      ],
      "name": "ApprovalForAll",
      "type": "event"
    },
    {
      "anonymous": false,
      "inputs": [
        {
          "indexed": true,
          "internalType": "address",
          "name": "owner",
          "type": "address"
        },
        {
          "indexed": false,
          "internalType": "uint256",
          "name": "id",
          "type": "uint256"
        },
        {
          "indexed": false,
          "internalType": "uint256",
          "name": "dna",
          "type": "uint256"
        }
      ],
      "name": "NewArtWork",
      "type": "event"
    },
    {
      "anonymous": false,
      "inputs": [
        {
          "indexed": true,
          "internalType": "address",
          "name": "previousOwner",
          "type": "address"
        },
        {
          "indexed": true,
          "internalType": "address",
          "name": "newOwner",
          "type": "address"
        }
      ],
      "name": "OwnershipTransferred",
      "type": "event"
    },
    {
      "anonymous": false,
      "inputs": [
        {
          "indexed": true,
          "internalType": "address",
          "name": "from",
          "type": "address"
        },
        {
          "indexed": true,
          "internalType": "address",
          "name": "to",
          "type": "address"
        },
        {
          "indexed": true,
          "internalType": "uint256",
          "name": "tokenId",
          "type": "uint256"
        }
      ],
      "name": "Transfer",
      "type": "event"
    },
    {
      "inputs": [
        {
          "internalType": "address",
          "name": "to",
          "type": "address"
        },
        {
          "internalType": "uint256",
          "name": "tokenId",
          "type": "uint256"
        }
      ],
      "name": "approve",
      "outputs": [],
      "stateMutability": "nonpayable",
      "type": "function"
    },
    {
      "inputs": [
        {
          "internalType": "uint256",
          "name": "",
          "type": "uint256"
        }
      ],
      "name": "art_works",
      "outputs": [
        {
          "internalType": "string",
          "name": "name",
          "type": "string"
        },
        {
          "internalType": "uint256",
          "name": "id",
          "type": "uint256"
        },
        {
          "internalType": "uint256",
          "name": "dna",
          "type": "uint256"
        },
        {
          "internalType": "uint8",
          "name": "level",
          "type": "uint8"
        },
        {
          "internalType": "uint8",
          "name": "rarity",
          "type": "uint8"
        },
        {
          "internalType": "uint8",
          "name": "price",
          "type": "uint8"
        },
        {
          "internalType": "uint8",
          "name": "availableForBuy",
          "type": "uint8"
        }
      ],
      "stateMutability": "view",
      "type": "function"
    },
    {
      "inputs": [
        {
          "internalType": "address",
          "name": "owner",
          "type": "address"
        }
      ],
      "name": "balanceOf",
      "outputs": [
        {
          "internalType": "uint256",
          "name": "",
          "type": "uint256"
        }
      ],
      "stateMutability": "view",
      "type": "function"
    },
    {
      "inputs": [
        {
          "internalType": "uint256",
          "name": "_artId",
          "type": "uint256"
        }
      ],
      "name": "buyToken",
      "outputs": [],
      "stateMutability": "payable",
      "type": "function"
    },
    {
      "inputs": [
        {
          "internalType": "uint256",
          "name": "_artId",
          "type": "uint256"
        },
        {
          "internalType": "uint8",
          "name": "_priceToken",
          "type": "uint8"
        }
      ],
      "name": "changeAvailableActive",
      "outputs": [
        {
          "components": [
            {
              "internalType": "string",
              "name": "name",
              "type": "string"
            },
            {
              "internalType": "uint256",
              "name": "id",
              "type": "uint256"
            },
            {
              "internalType": "uint256",
              "name": "dna",
              "type": "uint256"
            },
            {
              "internalType": "uint8",
              "name": "level",
              "type": "uint8"
            },
            {
              "internalType": "uint8",
              "name": "rarity",
              "type": "uint8"
            },
            {
              "internalType": "uint8",
              "name": "price",
              "type": "uint8"
            },
            {
              "internalType": "uint8",
              "name": "availableForBuy",
              "type": "uint8"
            }
          ],
          "internalType": "struct Token.Art",
          "name": "",
          "type": "tuple"
        }
      ],
      "stateMutability": "nonpayable",
      "type": "function"
    },
    {
      "inputs": [
        {
          "internalType": "uint256",
          "name": "_artId",
          "type": "uint256"
        }
      ],
      "name": "changeAvailableInactive",
      "outputs": [
        {
          "components": [
            {
              "internalType": "string",
              "name": "name",
              "type": "string"
            },
            {
              "internalType": "uint256",
              "name": "id",
              "type": "uint256"
            },
            {
              "internalType": "uint256",
              "name": "dna",
              "type": "uint256"
            },
            {
              "internalType": "uint8",
              "name": "level",
              "type": "uint8"
            },
            {
              "internalType": "uint8",
              "name": "rarity",
              "type": "uint8"
            },
            {
              "internalType": "uint8",
              "name": "price",
              "type": "uint8"
            },
            {
              "internalType": "uint8",
              "name": "availableForBuy",
              "type": "uint8"
            }
          ],
          "internalType": "struct Token.Art",
          "name": "",
          "type": "tuple"
        }
      ],
      "stateMutability": "nonpayable",
      "type": "function"
    },
    {
      "inputs": [
        {
          "internalType": "string",
          "name": "_name",
          "type": "string"
        }
      ],
      "name": "createRandomArtWork",
      "outputs": [],
      "stateMutability": "payable",
      "type": "function"
    },
    {
      "inputs": [],
      "name": "feeToken",
      "outputs": [
        {
          "internalType": "uint256",
          "name": "",
          "type": "uint256"
        }
      ],
      "stateMutability": "view",
      "type": "function"
    },
    {
      "inputs": [],
      "name": "feeUpdate",
      "outputs": [
        {
          "internalType": "uint256",
          "name": "",
          "type": "uint256"
        }
      ],
      "stateMutability": "view",
      "type": "function"
    },
    {
      "inputs": [
        {
          "internalType": "uint256",
          "name": "tokenId",
          "type": "uint256"
        }
      ],
      "name": "getApproved",
      "outputs": [
        {
          "internalType": "address",
          "name": "",
          "type": "address"
        }
      ],
      "stateMutability": "view",
      "type": "function"
    },
    {
      "inputs": [],
      "name": "getArtWorks",
      "outputs": [
        {
          "components": [
            {
              "internalType": "string",
              "name": "name",
              "type": "string"
            },
            {
              "internalType": "uint256",
              "name": "id",
              "type": "uint256"
            },
            {
              "internalType": "uint256",
              "name": "dna",
              "type": "uint256"
            },
            {
              "internalType": "uint8",
              "name": "level",
              "type": "uint8"
            },
            {
              "internalType": "uint8",
              "name": "rarity",
              "type": "uint8"
            },
            {
              "internalType": "uint8",
              "name": "price",
              "type": "uint8"
            },
            {
              "internalType": "uint8",
              "name": "availableForBuy",
              "type": "uint8"
            }
          ],
          "internalType": "struct Token.Art[]",
          "name": "",
          "type": "tuple[]"
        }
      ],
      "stateMutability": "view",
      "type": "function"
    },
    {
      "inputs": [
        {
          "internalType": "address",
          "name": "_owner",
          "type": "address"
        }
      ],
      "name": "getOwnerArtWork",
      "outputs": [
        {
          "components": [
            {
              "internalType": "string",
              "name": "name",
              "type": "string"
            },
            {
              "internalType": "uint256",
              "name": "id",
              "type": "uint256"
            },
            {
              "internalType": "uint256",
              "name": "dna",
              "type": "uint256"
            },
            {
              "internalType": "uint8",
              "name": "level",
              "type": "uint8"
            },
            {
              "internalType": "uint8",
              "name": "rarity",
              "type": "uint8"
            },
            {
              "internalType": "uint8",
              "name": "price",
              "type": "uint8"
            },
            {
              "internalType": "uint8",
              "name": "availableForBuy",
              "type": "uint8"
            }
          ],
          "internalType": "struct Token.Art[]",
          "name": "",
          "type": "tuple[]"
        }
      ],
      "stateMutability": "view",
      "type": "function"
    },
    {
      "inputs": [],
      "name": "infoSmartContract",
      "outputs": [
        {
          "internalType": "address",
          "name": "",
          "type": "address"
        },
        {
          "internalType": "uint256",
          "name": "",
          "type": "uint256"
        }
      ],
      "stateMutability": "view",
      "type": "function"
    },
    {
      "inputs": [
        {
          "internalType": "address",
          "name": "owner",
          "type": "address"
        },
        {
          "internalType": "address",
          "name": "operator",
          "type": "address"
        }
      ],
      "name": "isApprovedForAll",
      "outputs": [
        {
          "internalType": "bool",
          "name": "",
          "type": "bool"
        }
      ],
      "stateMutability": "view",
      "type": "function"
    },
    {
      "inputs": [
        {
          "internalType": "uint256",
          "name": "_artId",
          "type": "uint256"
        }
      ],
      "name": "levelUp",
      "outputs": [],
      "stateMutability": "payable",
      "type": "function"
    },
    {
      "inputs": [],
      "name": "name",
      "outputs": [
        {
          "internalType": "string",
          "name": "",
          "type": "string"
        }
      ],
      "stateMutability": "view",
      "type": "function"
    },
    {
      "inputs": [],
      "name": "owner",
      "outputs": [
        {
          "internalType": "address",
          "name": "",
          "type": "address"
        }
      ],
      "stateMutability": "view",
      "type": "function"
    },
    {
      "inputs": [
        {
          "internalType": "uint256",
          "name": "tokenId",
          "type": "uint256"
        }
      ],
      "name": "ownerOf",
      "outputs": [
        {
          "internalType": "address",
          "name": "",
          "type": "address"
        }
      ],
      "stateMutability": "view",
      "type": "function"
    },
    {
      "inputs": [],
      "name": "renounceOwnership",
      "outputs": [],
      "stateMutability": "nonpayable",
      "type": "function"
    },
    {
      "inputs": [
        {
          "internalType": "address",
          "name": "from",
          "type": "address"
        },
        {
          "internalType": "address",
          "name": "to",
          "type": "address"
        },
        {
          "internalType": "uint256",
          "name": "tokenId",
          "type": "uint256"
        }
      ],
      "name": "safeTransferFrom",
      "outputs": [],
      "stateMutability": "nonpayable",
      "type": "function"
    },
    {
      "inputs": [
        {
          "internalType": "address",
          "name": "from",
          "type": "address"
        },
        {
          "internalType": "address",
          "name": "to",
          "type": "address"
        },
        {
          "internalType": "uint256",
          "name": "tokenId",
          "type": "uint256"
        },
        {
          "internalType": "bytes",
          "name": "_data",
          "type": "bytes"
        }
      ],
      "name": "safeTransferFrom",
      "outputs": [],
      "stateMutability": "nonpayable",
      "type": "function"
    },
    {
      "inputs": [
        {
          "internalType": "address",
          "name": "operator",
          "type": "address"
        },
        {
          "internalType": "bool",
          "name": "approved",
          "type": "bool"
        }
      ],
      "name": "setApprovalForAll",
      "outputs": [],
      "stateMutability": "nonpayable",
      "type": "function"
    },
    {
      "inputs": [
        {
          "internalType": "bytes4",
          "name": "interfaceId",
          "type": "bytes4"
        }
      ],
      "name": "supportsInterface",
      "outputs": [
        {
          "internalType": "bool",
          "name": "",
          "type": "bool"
        }
      ],
      "stateMutability": "view",
      "type": "function"
    },
    {
      "inputs": [],
      "name": "symbol",
      "outputs": [
        {
          "internalType": "string",
          "name": "",
          "type": "string"
        }
      ],
      "stateMutability": "view",
      "type": "function"
    },
    {
      "inputs": [
        {
          "internalType": "uint256",
          "name": "tokenId",
          "type": "uint256"
        }
      ],
      "name": "tokenURI",
      "outputs": [
        {
          "internalType": "string",
          "name": "",
          "type": "string"
        }
      ],
      "stateMutability": "view",
      "type": "function"
    },
    {
      "inputs": [],
      "name": "totalSupply",
      "outputs": [
        {
          "internalType": "uint256",
          "name": "",
          "type": "uint256"
        }
      ],
      "stateMutability": "view",
      "type": "function"
    },
    {
      "inputs": [
        {
          "internalType": "address",
          "name": "from",
          "type": "address"
        },
        {
          "internalType": "address",
          "name": "to",
          "type": "address"
        },
        {
          "internalType": "uint256",
          "name": "tokenId",
          "type": "uint256"
        }
      ],
      "name": "transferFrom",
      "outputs": [],
      "stateMutability": "nonpayable",
      "type": "function"
    },
    {
      "inputs": [
        {
          "internalType": "address",
          "name": "newOwner",
          "type": "address"
        }
      ],
      "name": "transferOwnership",
      "outputs": [],
      "stateMutability": "nonpayable",
      "type": "function"
    },
    {
      "inputs": [
        {
          "internalType": "uint256",
          "name": "_feeToken",
          "type": "uint256"
        }
      ],
      "name": "updateFeeToken",
      "outputs": [],
      "stateMutability": "nonpayable",
      "type": "function"
    },
    {
      "inputs": [],
      "name": "withdraw",
      "outputs": [],
      "stateMutability": "payable",
      "type": "function"
    }
  ],
  "bytecode": "0x6080604052674563918244f40000600855670de0b6b3a76400006009553480156200002957600080fd5b50604051620051773803806200517783398181016040528101906200004f919062000300565b81818160009081620000629190620005d0565b508060019081620000749190620005d0565b505050620000976200008b6200009f60201b60201c565b620000a760201b60201c565b5050620006b7565b600033905090565b6000600660009054906101000a900473ffffffffffffffffffffffffffffffffffffffff16905081600660006101000a81548173ffffffffffffffffffffffffffffffffffffffff021916908373ffffffffffffffffffffffffffffffffffffffff1602179055508173ffffffffffffffffffffffffffffffffffffffff168173ffffffffffffffffffffffffffffffffffffffff167f8be0079c531659141344cd1fd0a4f28419497f9722a3daafe3b4186f6b6457e060405160405180910390a35050565b6000604051905090565b600080fd5b600080fd5b600080fd5b600080fd5b6000601f19601f8301169050919050565b7f4e487b7100000000000000000000000000000000000000000000000000000000600052604160045260246000fd5b620001d6826200018b565b810181811067ffffffffffffffff82111715620001f857620001f76200019c565b5b80604052505050565b60006200020d6200016d565b90506200021b8282620001cb565b919050565b600067ffffffffffffffff8211156200023e576200023d6200019c565b5b62000249826200018b565b9050602081019050919050565b60005b838110156200027657808201518184015260208101905062000259565b60008484015250505050565b600062000299620002938462000220565b62000201565b905082815260208101848484011115620002b857620002b762000186565b5b620002c584828562000256565b509392505050565b600082601f830112620002e557620002e462000181565b5b8151620002f784826020860162000282565b91505092915050565b600080604083850312156200031a576200031962000177565b5b600083015167ffffffffffffffff8111156200033b576200033a6200017c565b5b6200034985828601620002cd565b925050602083015167ffffffffffffffff8111156200036d576200036c6200017c565b5b6200037b85828601620002cd565b9150509250929050565b600081519050919050565b7f4e487b7100000000000000000000000000000000000000000000000000000000600052602260045260246000fd5b60006002820490506001821680620003d857607f821691505b602082108103620003ee57620003ed62000390565b5b50919050565b60008190508160005260206000209050919050565b60006020601f8301049050919050565b600082821b905092915050565b600060088302620004587fffffffffffffffffffffffffffffffffffffffffffffffffffffffffffffffff8262000419565b62000464868362000419565b95508019841693508086168417925050509392505050565b6000819050919050565b6000819050919050565b6000620004b1620004ab620004a5846200047c565b62000486565b6200047c565b9050919050565b6000819050919050565b620004cd8362000490565b620004e5620004dc82620004b8565b84845462000426565b825550505050565b600090565b620004fc620004ed565b62000509818484620004c2565b505050565b5b81811015620005315762000525600082620004f2565b6001810190506200050f565b5050565b601f82111562000580576200054a81620003f4565b620005558462000409565b8101602085101562000565578190505b6200057d620005748562000409565b8301826200050e565b50505b505050565b600082821c905092915050565b6000620005a56000198460080262000585565b1980831691505092915050565b6000620005c0838362000592565b9150826002028217905092915050565b620005db8262000385565b67ffffffffffffffff811115620005f757620005f66200019c565b5b620006038254620003bf565b6200061082828562000535565b600060209050601f83116001811462000648576000841562000633578287015190505b6200063f8582620005b2565b865550620006af565b601f1984166200065886620003f4565b60005b8281101562000682578489015182556001820191506020850194506020810190506200065b565b86831015620006a257848901516200069e601f89168262000592565b8355505b6001600288020188555050505b505050505050565b614ab080620006c76000396000f3fe6080604052600436106101cd5760003560e01c806342842e0e116100f75780639b6c354e11610095578063be71eea311610064578063be71eea314610647578063c87b56dd14610684578063e985e9c5146106c1578063f2fde38b146106fe576101cd565b80639b6c354e1461059e578063a22cb465146105ca578063ad9f0563146105f3578063b88d4fde1461061e576101cd565b806370a08231116100d157806370a08231146104f4578063715018a6146105315780638da5cb5b1461054857806395d89b4114610573576101cd565b806342842e0e146104635780636352211e1461048c578063647846a5146104c9576101cd565b806318160ddd1161016f5780632d296bf11161013e5780632d296bf1146103f65780632f2670c314610412578063382d04121461042e5780633ccfd60b14610459576101cd565b806318160ddd1461033c57806320ba538f1461036757806323b872dd1461039057806329c607f5146103b9576101cd565b8063081812fc116101ab578063081812fc1461027d578063095ea7b3146102ba5780630ce90ec2146102e3578063125c4b2b146102ff576101cd565b806301ffc9a7146101d25780630667fac31461020f57806306fdde0314610252575b600080fd5b3480156101de57600080fd5b506101f960048036038101906101f49190612d94565b610727565b6040516102069190612ddc565b60405180910390f35b34801561021b57600080fd5b5061023660048036038101906102319190612e2d565b610809565b6040516102499796959493929190612f15565b60405180910390f35b34801561025e57600080fd5b50610267610917565b6040516102749190612f8b565b60405180910390f35b34801561028957600080fd5b506102a4600480360381019061029f9190612e2d565b6109a9565b6040516102b19190612fee565b60405180910390f35b3480156102c657600080fd5b506102e160048036038101906102dc9190613035565b610a2e565b005b6102fd60048036038101906102f89190612e2d565b610b45565b005b34801561030b57600080fd5b5061032660048036038101906103219190613075565b610c64565b6040516103339190613268565b60405180910390f35b34801561034857600080fd5b50610351610ea4565b60405161035e919061328a565b60405180910390f35b34801561037357600080fd5b5061038e60048036038101906103899190612e2d565b610eb1565b005b34801561039c57600080fd5b506103b760048036038101906103b291906132a5565b610f37565b005b3480156103c557600080fd5b506103e060048036038101906103db9190612e2d565b610f97565b6040516103ed9190613394565b60405180910390f35b610410600480360381019061040b9190612e2d565b6111a5565b005b61042c600480360381019061042791906134eb565b611391565b005b34801561043a57600080fd5b506104436113ac565b6040516104509190613268565b60405180910390f35b610461611525565b005b34801561046f57600080fd5b5061048a600480360381019061048591906132a5565b6115f7565b005b34801561049857600080fd5b506104b360048036038101906104ae9190612e2d565b611617565b6040516104c09190612fee565b60405180910390f35b3480156104d557600080fd5b506104de6116c8565b6040516104eb919061328a565b60405180910390f35b34801561050057600080fd5b5061051b60048036038101906105169190613075565b6116ce565b604051610528919061328a565b60405180910390f35b34801561053d57600080fd5b50610546611785565b005b34801561055457600080fd5b5061055d61180d565b60405161056a9190612fee565b60405180910390f35b34801561057f57600080fd5b50610588611837565b6040516105959190612f8b565b60405180910390f35b3480156105aa57600080fd5b506105b36118c9565b6040516105c1929190613534565b60405180910390f35b3480156105d657600080fd5b506105f160048036038101906105ec9190613589565b6118f5565b005b3480156105ff57600080fd5b5061060861190b565b604051610615919061328a565b60405180910390f35b34801561062a57600080fd5b506106456004803603810190610640919061366a565b611911565b005b34801561065357600080fd5b5061066e60048036038101906106699190613719565b611973565b60405161067b9190613394565b60405180910390f35b34801561069057600080fd5b506106ab60048036038101906106a69190612e2d565b611bc7565b6040516106b89190612f8b565b60405180910390f35b3480156106cd57600080fd5b506106e860048036038101906106e39190613759565b611c6e565b6040516106f59190612ddc565b60405180910390f35b34801561070a57600080fd5b5061072560048036038101906107209190613075565b611d02565b005b60007f80ac58cd000000000000000000000000000000000000000000000000000000007bffffffffffffffffffffffffffffffffffffffffffffffffffffffff1916827bffffffffffffffffffffffffffffffffffffffffffffffffffffffff191614806107f257507f5b5e139f000000000000000000000000000000000000000000000000000000007bffffffffffffffffffffffffffffffffffffffffffffffffffffffff1916827bffffffffffffffffffffffffffffffffffffffffffffffffffffffff1916145b80610802575061080182611df9565b5b9050919050565b600a818154811061081957600080fd5b906000526020600020906004020160009150905080600001805461083c906137c8565b80601f0160208091040260200160405190810160405280929190818152602001828054610868906137c8565b80156108b55780601f1061088a576101008083540402835291602001916108b5565b820191906000526020600020905b81548152906001019060200180831161089857829003601f168201915b5050505050908060010154908060020154908060030160009054906101000a900460ff16908060030160019054906101000a900460ff16908060030160029054906101000a900460ff16908060030160039054906101000a900460ff16905087565b606060008054610926906137c8565b80601f0160208091040260200160405190810160405280929190818152602001828054610952906137c8565b801561099f5780601f106109745761010080835404028352916020019161099f565b820191906000526020600020905b81548152906001019060200180831161098257829003601f168201915b5050505050905090565b60006109b482611e63565b6109f3576040517f08c379a00000000000000000000000000000000000000000000000000000000081526004016109ea9061386b565b60405180910390fd5b6004600083815260200190815260200160002060009054906101000a900473ffffffffffffffffffffffffffffffffffffffff169050919050565b6000610a3982611617565b90508073ffffffffffffffffffffffffffffffffffffffff168373ffffffffffffffffffffffffffffffffffffffff1603610aa9576040517f08c379a0000000000000000000000000000000000000000000000000000000008152600401610aa0906138fd565b60405180910390fd5b8073ffffffffffffffffffffffffffffffffffffffff16610ac8611ecf565b73ffffffffffffffffffffffffffffffffffffffff161480610af75750610af681610af1611ecf565b611c6e565b5b610b36576040517f08c379a0000000000000000000000000000000000000000000000000000000008152600401610b2d9061398f565b60405180910390fd5b610b408383611ed7565b505050565b3373ffffffffffffffffffffffffffffffffffffffff16610b6582611617565b73ffffffffffffffffffffffffffffffffffffffff1614610bbb576040517f08c379a0000000000000000000000000000000000000000000000000000000008152600401610bb290613a21565b60405180910390fd5b600954341015610c00576040517f08c379a0000000000000000000000000000000000000000000000000000000008152600401610bf790613ab3565b60405180910390fd5b6000600a8281548110610c1657610c15613ad3565b5b9060005260206000209060040201905080600301600081819054906101000a900460ff1680929190610c4790613b31565b91906101000a81548160ff021916908360ff160217905550505050565b60606000610c71836116ce565b67ffffffffffffffff811115610c8a57610c896133c0565b5b604051908082528060200260200182016040528015610cc357816020015b610cb0612cdf565b815260200190600190039081610ca85790505b5090506000805b600a80549050811015610e99578473ffffffffffffffffffffffffffffffffffffffff16610cf782611617565b73ffffffffffffffffffffffffffffffffffffffff1603610e8657600a8181548110610d2657610d25613ad3565b5b90600052602060002090600402016040518060e0016040529081600082018054610d4f906137c8565b80601f0160208091040260200160405190810160405280929190818152602001828054610d7b906137c8565b8015610dc85780601f10610d9d57610100808354040283529160200191610dc8565b820191906000526020600020905b815481529060010190602001808311610dab57829003601f168201915b5050505050815260200160018201548152602001600282015481526020016003820160009054906101000a900460ff1660ff1660ff1681526020016003820160019054906101000a900460ff1660ff1660ff1681526020016003820160029054906101000a900460ff1660ff1660ff1681526020016003820160039054906101000a900460ff1660ff1660ff1681525050838381518110610e6c57610e6b613ad3565b5b60200260200101819052508180610e8290613b5a565b9250505b8080610e9190613b5a565b915050610cca565b508192505050919050565b6000600a80549050905090565b610eb9611ecf565b73ffffffffffffffffffffffffffffffffffffffff16610ed761180d565b73ffffffffffffffffffffffffffffffffffffffff1614610f2d576040517f08c379a0000000000000000000000000000000000000000000000000000000008152600401610f2490613bee565b60405180910390fd5b8060088190555050565b610f48610f42611ecf565b82611f90565b610f87576040517f08c379a0000000000000000000000000000000000000000000000000000000008152600401610f7e90613c80565b60405180910390fd5b610f9283838361206e565b505050565b610f9f612cdf565b3373ffffffffffffffffffffffffffffffffffffffff16610fbf83611617565b73ffffffffffffffffffffffffffffffffffffffff1614611015576040517f08c379a000000000000000000000000000000000000000000000000000000000815260040161100c90613d12565b60405180910390fd5b6000600a838154811061102b5761102a613ad3565b5b9060005260206000209060040201905060008160030160036101000a81548160ff021916908360ff16021790555060008160030160026101000a81548160ff021916908360ff160217905550806040518060e0016040529081600082018054611093906137c8565b80601f01602080910402602001604051908101604052809291908181526020018280546110bf906137c8565b801561110c5780601f106110e15761010080835404028352916020019161110c565b820191906000526020600020905b8154815290600101906020018083116110ef57829003601f168201915b5050505050815260200160018201548152602001600282015481526020016003820160009054906101000a900460ff1660ff1660ff1681526020016003820160019054906101000a900460ff1660ff1660ff1681526020016003820160029054906101000a900460ff1660ff1660ff1681526020016003820160039054906101000a900460ff1660ff1660ff1681525050915050919050565b6000600a82815481106111bb576111ba613ad3565b5b906000526020600020906004020190503373ffffffffffffffffffffffffffffffffffffffff166111eb83611617565b73ffffffffffffffffffffffffffffffffffffffff1603611241576040517f08c379a000000000000000000000000000000000000000000000000000000000815260040161123890613d7e565b60405180910390fd5b60018160030160039054906101000a900460ff1660ff1614611298576040517f08c379a000000000000000000000000000000000000000000000000000000000815260040161128f90613e10565b60405180910390fd5b8060030160029054906101000a900460ff1660ff163410156112ef576040517f08c379a00000000000000000000000000000000000000000000000000000000081526004016112e690613ea2565b60405180910390fd5b6112f882611617565b73ffffffffffffffffffffffffffffffffffffffff166108fc349081150290604051600060405180830381858888f1935050505015801561133d573d6000803e3d6000fd5b5061135161134a83611617565b338461206e565b60008160030160036101000a81548160ff021916908360ff16021790555060008160030160026101000a81548160ff021916908360ff1602179055505050565b6008543410156113a057600080fd5b6113a9816122c9565b50565b6060600a805480602002602001604051908101604052809291908181526020016000905b8282101561151c57838290600052602060002090600402016040518060e0016040529081600082018054611403906137c8565b80601f016020809104026020016040519081016040528092919081815260200182805461142f906137c8565b801561147c5780601f106114515761010080835404028352916020019161147c565b820191906000526020600020905b81548152906001019060200180831161145f57829003601f168201915b5050505050815260200160018201548152602001600282015481526020016003820160009054906101000a900460ff1660ff1660ff1681526020016003820160019054906101000a900460ff1660ff1660ff1681526020016003820160029054906101000a900460ff1660ff1660ff1681526020016003820160039054906101000a900460ff1660ff1660ff1681525050815260200190600101906113d0565b50505050905090565b61152d611ecf565b73ffffffffffffffffffffffffffffffffffffffff1661154b61180d565b73ffffffffffffffffffffffffffffffffffffffff16146115a1576040517f08c379a000000000000000000000000000000000000000000000000000000000815260040161159890613bee565b60405180910390fd5b60006115ab61180d565b90508073ffffffffffffffffffffffffffffffffffffffff166108fc479081150290604051600060405180830381858888f193505050501580156115f3573d6000803e3d6000fd5b5050565b61161283838360405180602001604052806000815250611911565b505050565b6000806002600084815260200190815260200160002060009054906101000a900473ffffffffffffffffffffffffffffffffffffffff169050600073ffffffffffffffffffffffffffffffffffffffff168173ffffffffffffffffffffffffffffffffffffffff16036116bf576040517f08c379a00000000000000000000000000000000000000000000000000000000081526004016116b690613f34565b60405180910390fd5b80915050919050565b60085481565b60008073ffffffffffffffffffffffffffffffffffffffff168273ffffffffffffffffffffffffffffffffffffffff160361173e576040517f08c379a000000000000000000000000000000000000000000000000000000000815260040161173590613fc6565b60405180910390fd5b600360008373ffffffffffffffffffffffffffffffffffffffff1673ffffffffffffffffffffffffffffffffffffffff168152602001908152602001600020549050919050565b61178d611ecf565b73ffffffffffffffffffffffffffffffffffffffff166117ab61180d565b73ffffffffffffffffffffffffffffffffffffffff1614611801576040517f08c379a00000000000000000000000000000000000000000000000000000000081526004016117f890613bee565b60405180910390fd5b61180b6000612486565b565b6000600660009054906101000a900473ffffffffffffffffffffffffffffffffffffffff16905090565b606060018054611846906137c8565b80601f0160208091040260200160405190810160405280929190818152602001828054611872906137c8565b80156118bf5780601f10611894576101008083540402835291602001916118bf565b820191906000526020600020905b8154815290600101906020018083116118a257829003601f168201915b5050505050905090565b60008060003090506000670de0b6b3a7640000476118e79190614015565b905081819350935050509091565b611907611900611ecf565b838361254c565b5050565b60095481565b61192261191c611ecf565b83611f90565b611961576040517f08c379a000000000000000000000000000000000000000000000000000000000815260040161195890613c80565b60405180910390fd5b61196d848484846126b8565b50505050565b61197b612cdf565b3373ffffffffffffffffffffffffffffffffffffffff1661199b84611617565b73ffffffffffffffffffffffffffffffffffffffff16146119f1576040517f08c379a00000000000000000000000000000000000000000000000000000000081526004016119e890613d12565b60405180910390fd5b60008260ff1611611a37576040517f08c379a0000000000000000000000000000000000000000000000000000000008152600401611a2e90614092565b60405180910390fd5b6000600a8481548110611a4d57611a4c613ad3565b5b9060005260206000209060040201905060018160030160036101000a81548160ff021916908360ff160217905550828160030160026101000a81548160ff021916908360ff160217905550806040518060e0016040529081600082018054611ab4906137c8565b80601f0160208091040260200160405190810160405280929190818152602001828054611ae0906137c8565b8015611b2d5780601f10611b0257610100808354040283529160200191611b2d565b820191906000526020600020905b815481529060010190602001808311611b1057829003601f168201915b5050505050815260200160018201548152602001600282015481526020016003820160009054906101000a900460ff1660ff1660ff1681526020016003820160019054906101000a900460ff1660ff1660ff1681526020016003820160029054906101000a900460ff1660ff1660ff1681526020016003820160039054906101000a900460ff1660ff1660ff168152505091505092915050565b6060611bd282611e63565b611c11576040517f08c379a0000000000000000000000000000000000000000000000000000000008152600401611c0890614124565b60405180910390fd5b6000611c1b612714565b90506000815111611c3b5760405180602001604052806000815250611c66565b80611c458461272b565b604051602001611c56929190614180565b6040516020818303038152906040525b915050919050565b6000600560008473ffffffffffffffffffffffffffffffffffffffff1673ffffffffffffffffffffffffffffffffffffffff16815260200190815260200160002060008373ffffffffffffffffffffffffffffffffffffffff1673ffffffffffffffffffffffffffffffffffffffff16815260200190815260200160002060009054906101000a900460ff16905092915050565b611d0a611ecf565b73ffffffffffffffffffffffffffffffffffffffff16611d2861180d565b73ffffffffffffffffffffffffffffffffffffffff1614611d7e576040517f08c379a0000000000000000000000000000000000000000000000000000000008152600401611d7590613bee565b60405180910390fd5b600073ffffffffffffffffffffffffffffffffffffffff168173ffffffffffffffffffffffffffffffffffffffff1603611ded576040517f08c379a0000000000000000000000000000000000000000000000000000000008152600401611de490614216565b60405180910390fd5b611df681612486565b50565b60007f01ffc9a7000000000000000000000000000000000000000000000000000000007bffffffffffffffffffffffffffffffffffffffffffffffffffffffff1916827bffffffffffffffffffffffffffffffffffffffffffffffffffffffff1916149050919050565b60008073ffffffffffffffffffffffffffffffffffffffff166002600084815260200190815260200160002060009054906101000a900473ffffffffffffffffffffffffffffffffffffffff1673ffffffffffffffffffffffffffffffffffffffff1614159050919050565b600033905090565b816004600083815260200190815260200160002060006101000a81548173ffffffffffffffffffffffffffffffffffffffff021916908373ffffffffffffffffffffffffffffffffffffffff160217905550808273ffffffffffffffffffffffffffffffffffffffff16611f4a83611617565b73ffffffffffffffffffffffffffffffffffffffff167f8c5be1e5ebec7d5bd14f71427d1e84f3dd0314c0f7b2291e5b200ac8c7c3b92560405160405180910390a45050565b6000611f9b82611e63565b611fda576040517f08c379a0000000000000000000000000000000000000000000000000000000008152600401611fd1906142a8565b60405180910390fd5b6000611fe583611617565b90508073ffffffffffffffffffffffffffffffffffffffff168473ffffffffffffffffffffffffffffffffffffffff16148061205457508373ffffffffffffffffffffffffffffffffffffffff1661203c846109a9565b73ffffffffffffffffffffffffffffffffffffffff16145b8061206557506120648185611c6e565b5b91505092915050565b8273ffffffffffffffffffffffffffffffffffffffff1661208e82611617565b73ffffffffffffffffffffffffffffffffffffffff16146120e4576040517f08c379a00000000000000000000000000000000000000000000000000000000081526004016120db9061433a565b60405180910390fd5b600073ffffffffffffffffffffffffffffffffffffffff168273ffffffffffffffffffffffffffffffffffffffff1603612153576040517f08c379a000000000000000000000000000000000000000000000000000000000815260040161214a906143cc565b60405180910390fd5b61215e83838361288b565b612169600082611ed7565b6001600360008573ffffffffffffffffffffffffffffffffffffffff1673ffffffffffffffffffffffffffffffffffffffff16815260200190815260200160002060008282546121b991906143ec565b925050819055506001600360008473ffffffffffffffffffffffffffffffffffffffff1673ffffffffffffffffffffffffffffffffffffffff16815260200190815260200160002060008282546122109190614420565b92505081905550816002600083815260200190815260200160002060006101000a81548173ffffffffffffffffffffffffffffffffffffffff021916908373ffffffffffffffffffffffffffffffffffffffff160217905550808273ffffffffffffffffffffffffffffffffffffffff168473ffffffffffffffffffffffffffffffffffffffff167fddf252ad1be2c89b69c2b068fc378daa952ba7f163c4a11628f55a4df523b3ef60405160405180910390a4505050565b60006122d56064612890565b905060006122e9662386f26fc10000612890565b905060006122f760076128db565b905060006040518060e00160405280868152602001838152602001848152602001600160ff1681526020018560ff168152602001600060ff168152602001600060ff168152509050600a81908060018154018082558091505060019003906000526020600020906004020160009091909190915060008201518160000190816123809190614600565b50602082015181600101556040820151816002015560608201518160030160006101000a81548160ff021916908360ff16021790555060808201518160030160016101000a81548160ff021916908360ff16021790555060a08201518160030160026101000a81548160ff021916908360ff16021790555060c08201518160030160036101000a81548160ff021916908360ff160217905550505061242533836128e9565b3373ffffffffffffffffffffffffffffffffffffffff167fe6c61928f551ceab96529f7f8e907a65bad987be27d94f9f8b77238bd4335b06838560405161246d9291906146d2565b60405180910390a261247f6007612907565b5050505050565b6000600660009054906101000a900473ffffffffffffffffffffffffffffffffffffffff16905081600660006101000a81548173ffffffffffffffffffffffffffffffffffffffff021916908373ffffffffffffffffffffffffffffffffffffffff1602179055508173ffffffffffffffffffffffffffffffffffffffff168173ffffffffffffffffffffffffffffffffffffffff167f8be0079c531659141344cd1fd0a4f28419497f9722a3daafe3b4186f6b6457e060405160405180910390a35050565b8173ffffffffffffffffffffffffffffffffffffffff168373ffffffffffffffffffffffffffffffffffffffff16036125ba576040517f08c379a00000000000000000000000000000000000000000000000000000000081526004016125b190614747565b60405180910390fd5b80600560008573ffffffffffffffffffffffffffffffffffffffff1673ffffffffffffffffffffffffffffffffffffffff16815260200190815260200160002060008473ffffffffffffffffffffffffffffffffffffffff1673ffffffffffffffffffffffffffffffffffffffff16815260200190815260200160002060006101000a81548160ff0219169083151502179055508173ffffffffffffffffffffffffffffffffffffffff168373ffffffffffffffffffffffffffffffffffffffff167f17307eab39ab6107e8899845ad3d59bd9653f200f220920489ca2b5937696c31836040516126ab9190612ddc565b60405180910390a3505050565b6126c384848461206e565b6126cf8484848461291d565b61270e576040517f08c379a0000000000000000000000000000000000000000000000000000000008152600401612705906147d9565b60405180910390fd5b50505050565b606060405180602001604052806000815250905090565b606060008203612772576040518060400160405280600181526020017f30000000000000000000000000000000000000000000000000000000000000008152509050612886565b600082905060005b600082146127a457808061278d90613b5a565b915050600a8261279d9190614015565b915061277a565b60008167ffffffffffffffff8111156127c0576127bf6133c0565b5b6040519080825280601f01601f1916602001820160405280156127f25781602001600182028036833780820191505090505b5090505b6000851461287f5760018261280b91906143ec565b9150600a8561281a91906147f9565b60306128269190614420565b60f81b81838151811061283c5761283b613ad3565b5b60200101907effffffffffffffffffffffffffffffffffffffffffffffffffffffffffffff1916908160001a905350600a856128789190614015565b94506127f6565b8093505050505b919050565b505050565b60008042336040516020016128a6929190614893565b60405160208183030381529060405280519060200120905060008160001c905083816128d291906147f9565b92505050919050565b600081600001549050919050565b612903828260405180602001604052806000815250612aa4565b5050565b6001816000016000828254019250508190555050565b600061293e8473ffffffffffffffffffffffffffffffffffffffff16612aff565b15612a97578373ffffffffffffffffffffffffffffffffffffffff1663150b7a02612967611ecf565b8786866040518563ffffffff1660e01b81526004016129899493929190614914565b6020604051808303816000875af19250505080156129c557506040513d601f19601f820116820180604052508101906129c29190614975565b60015b612a47573d80600081146129f5576040519150601f19603f3d011682016040523d82523d6000602084013e6129fa565b606091505b506000815103612a3f576040517f08c379a0000000000000000000000000000000000000000000000000000000008152600401612a36906147d9565b60405180910390fd5b805181602001fd5b63150b7a0260e01b7bffffffffffffffffffffffffffffffffffffffffffffffffffffffff1916817bffffffffffffffffffffffffffffffffffffffffffffffffffffffff191614915050612a9c565b600190505b949350505050565b612aae8383612b12565b612abb600084848461291d565b612afa576040517f08c379a0000000000000000000000000000000000000000000000000000000008152600401612af1906147d9565b60405180910390fd5b505050565b600080823b905060008111915050919050565b600073ffffffffffffffffffffffffffffffffffffffff168273ffffffffffffffffffffffffffffffffffffffff1603612b81576040517f08c379a0000000000000000000000000000000000000000000000000000000008152600401612b78906149ee565b60405180910390fd5b612b8a81611e63565b15612bca576040517f08c379a0000000000000000000000000000000000000000000000000000000008152600401612bc190614a5a565b60405180910390fd5b612bd66000838361288b565b6001600360008473ffffffffffffffffffffffffffffffffffffffff1673ffffffffffffffffffffffffffffffffffffffff1681526020019081526020016000206000828254612c269190614420565b92505081905550816002600083815260200190815260200160002060006101000a81548173ffffffffffffffffffffffffffffffffffffffff021916908373ffffffffffffffffffffffffffffffffffffffff160217905550808273ffffffffffffffffffffffffffffffffffffffff16600073ffffffffffffffffffffffffffffffffffffffff167fddf252ad1be2c89b69c2b068fc378daa952ba7f163c4a11628f55a4df523b3ef60405160405180910390a45050565b6040518060e00160405280606081526020016000815260200160008152602001600060ff168152602001600060ff168152602001600060ff168152602001600060ff1681525090565b6000604051905090565b600080fd5b600080fd5b60007fffffffff0000000000000000000000000000000000000000000000000000000082169050919050565b612d7181612d3c565b8114612d7c57600080fd5b50565b600081359050612d8e81612d68565b92915050565b600060208284031215612daa57612da9612d32565b5b6000612db884828501612d7f565b91505092915050565b60008115159050919050565b612dd681612dc1565b82525050565b6000602082019050612df16000830184612dcd565b92915050565b6000819050919050565b612e0a81612df7565b8114612e1557600080fd5b50565b600081359050612e2781612e01565b92915050565b600060208284031215612e4357612e42612d32565b5b6000612e5184828501612e18565b91505092915050565b600081519050919050565b600082825260208201905092915050565b60005b83811015612e94578082015181840152602081019050612e79565b60008484015250505050565b6000601f19601f8301169050919050565b6000612ebc82612e5a565b612ec68185612e65565b9350612ed6818560208601612e76565b612edf81612ea0565b840191505092915050565b612ef381612df7565b82525050565b600060ff82169050919050565b612f0f81612ef9565b82525050565b600060e0820190508181036000830152612f2f818a612eb1565b9050612f3e6020830189612eea565b612f4b6040830188612eea565b612f586060830187612f06565b612f656080830186612f06565b612f7260a0830185612f06565b612f7f60c0830184612f06565b98975050505050505050565b60006020820190508181036000830152612fa58184612eb1565b905092915050565b600073ffffffffffffffffffffffffffffffffffffffff82169050919050565b6000612fd882612fad565b9050919050565b612fe881612fcd565b82525050565b60006020820190506130036000830184612fdf565b92915050565b61301281612fcd565b811461301d57600080fd5b50565b60008135905061302f81613009565b92915050565b6000806040838503121561304c5761304b612d32565b5b600061305a85828601613020565b925050602061306b85828601612e18565b9150509250929050565b60006020828403121561308b5761308a612d32565b5b600061309984828501613020565b91505092915050565b600081519050919050565b600082825260208201905092915050565b6000819050602082019050919050565b600082825260208201905092915050565b60006130ea82612e5a565b6130f481856130ce565b9350613104818560208601612e76565b61310d81612ea0565b840191505092915050565b61312181612df7565b82525050565b61313081612ef9565b82525050565b600060e083016000830151848203600086015261315382826130df565b91505060208301516131686020860182613118565b50604083015161317b6040860182613118565b50606083015161318e6060860182613127565b5060808301516131a16080860182613127565b5060a08301516131b460a0860182613127565b5060c08301516131c760c0860182613127565b508091505092915050565b60006131de8383613136565b905092915050565b6000602082019050919050565b60006131fe826130a2565b61320881856130ad565b93508360208202850161321a856130be565b8060005b85811015613256578484038952815161323785826131d2565b9450613242836131e6565b925060208a0199505060018101905061321e565b50829750879550505050505092915050565b6000602082019050818103600083015261328281846131f3565b905092915050565b600060208201905061329f6000830184612eea565b92915050565b6000806000606084860312156132be576132bd612d32565b5b60006132cc86828701613020565b93505060206132dd86828701613020565b92505060406132ee86828701612e18565b9150509250925092565b600060e083016000830151848203600086015261331582826130df565b915050602083015161332a6020860182613118565b50604083015161333d6040860182613118565b5060608301516133506060860182613127565b5060808301516133636080860182613127565b5060a083015161337660a0860182613127565b5060c083015161338960c0860182613127565b508091505092915050565b600060208201905081810360008301526133ae81846132f8565b905092915050565b600080fd5b600080fd5b7f4e487b7100000000000000000000000000000000000000000000000000000000600052604160045260246000fd5b6133f882612ea0565b810181811067ffffffffffffffff82111715613417576134166133c0565b5b80604052505050565b600061342a612d28565b905061343682826133ef565b919050565b600067ffffffffffffffff821115613456576134556133c0565b5b61345f82612ea0565b9050602081019050919050565b82818337600083830152505050565b600061348e6134898461343b565b613420565b9050828152602081018484840111156134aa576134a96133bb565b5b6134b584828561346c565b509392505050565b600082601f8301126134d2576134d16133b6565b5b81356134e284826020860161347b565b91505092915050565b60006020828403121561350157613500612d32565b5b600082013567ffffffffffffffff81111561351f5761351e612d37565b5b61352b848285016134bd565b91505092915050565b60006040820190506135496000830185612fdf565b6135566020830184612eea565b9392505050565b61356681612dc1565b811461357157600080fd5b50565b6000813590506135838161355d565b92915050565b600080604083850312156135a05761359f612d32565b5b60006135ae85828601613020565b92505060206135bf85828601613574565b9150509250929050565b600067ffffffffffffffff8211156135e4576135e36133c0565b5b6135ed82612ea0565b9050602081019050919050565b600061360d613608846135c9565b613420565b905082815260208101848484011115613629576136286133bb565b5b61363484828561346c565b509392505050565b600082601f830112613651576136506133b6565b5b81356136618482602086016135fa565b91505092915050565b6000806000806080858703121561368457613683612d32565b5b600061369287828801613020565b94505060206136a387828801613020565b93505060406136b487828801612e18565b925050606085013567ffffffffffffffff8111156136d5576136d4612d37565b5b6136e18782880161363c565b91505092959194509250565b6136f681612ef9565b811461370157600080fd5b50565b600081359050613713816136ed565b92915050565b600080604083850312156137305761372f612d32565b5b600061373e85828601612e18565b925050602061374f85828601613704565b9150509250929050565b600080604083850312156137705761376f612d32565b5b600061377e85828601613020565b925050602061378f85828601613020565b9150509250929050565b7f4e487b7100000000000000000000000000000000000000000000000000000000600052602260045260246000fd5b600060028204905060018216806137e057607f821691505b6020821081036137f3576137f2613799565b5b50919050565b7f4552433732313a20617070726f76656420717565727920666f72206e6f6e657860008201527f697374656e7420746f6b656e0000000000000000000000000000000000000000602082015250565b6000613855602c83612e65565b9150613860826137f9565b604082019050919050565b6000602082019050818103600083015261388481613848565b9050919050565b7f4552433732313a20617070726f76616c20746f2063757272656e74206f776e6560008201527f7200000000000000000000000000000000000000000000000000000000000000602082015250565b60006138e7602183612e65565b91506138f28261388b565b604082019050919050565b60006020820190508181036000830152613916816138da565b9050919050565b7f4552433732313a20617070726f76652063616c6c6572206973206e6f74206f7760008201527f6e6572206e6f7220617070726f76656420666f7220616c6c0000000000000000602082015250565b6000613979603883612e65565b91506139848261391d565b604082019050919050565b600060208201905081810360008301526139a88161396c565b9050919050565b7f4572726f723a204f6e6c7920546f6b656e204f776e65722063616e207570206c60008201527f6576656c00000000000000000000000000000000000000000000000000000000602082015250565b6000613a0b602483612e65565b9150613a16826139af565b604082019050919050565b60006020820190508181036000830152613a3a816139fe565b9050919050565b7f4572726f723a204973206e65636573736172792073656e642066656520666f7260008201527f207570206c6576656c0000000000000000000000000000000000000000000000602082015250565b6000613a9d602983612e65565b9150613aa882613a41565b604082019050919050565b60006020820190508181036000830152613acc81613a90565b9050919050565b7f4e487b7100000000000000000000000000000000000000000000000000000000600052603260045260246000fd5b7f4e487b7100000000000000000000000000000000000000000000000000000000600052601160045260246000fd5b6000613b3c82612ef9565b915060ff8203613b4f57613b4e613b02565b5b600182019050919050565b6000613b6582612df7565b91507fffffffffffffffffffffffffffffffffffffffffffffffffffffffffffffffff8203613b9757613b96613b02565b5b600182019050919050565b7f4f776e61626c653a2063616c6c6572206973206e6f7420746865206f776e6572600082015250565b6000613bd8602083612e65565b9150613be382613ba2565b602082019050919050565b60006020820190508181036000830152613c0781613bcb565b9050919050565b7f4552433732313a207472616e736665722063616c6c6572206973206e6f74206f60008201527f776e6572206e6f7220617070726f766564000000000000000000000000000000602082015250565b6000613c6a603183612e65565b9150613c7582613c0e565b604082019050919050565b60006020820190508181036000830152613c9981613c5d565b9050919050565b7f4572726f723a204f6e6c7920546f6b656e204f776e65722063616e206368616e60008201527f676520617661696c61626c652073746174757300000000000000000000000000602082015250565b6000613cfc603383612e65565b9150613d0782613ca0565b604082019050919050565b60006020820190508181036000830152613d2b81613cef565b9050919050565b7f4572726f723a20546f6b656e206973206a75737420796f757200000000000000600082015250565b6000613d68601983612e65565b9150613d7382613d32565b602082019050919050565b60006020820190508181036000830152613d9781613d5b565b9050919050565b7f4572726f723a20546f6b656e206973206e6f7420417661696c61626c6520666f60008201527f7220627579000000000000000000000000000000000000000000000000000000602082015250565b6000613dfa602583612e65565b9150613e0582613d9e565b604082019050919050565b60006020820190508181036000830152613e2981613ded565b9050919050565b7f4572726f723a204973206e65636573736172792073656e6420546f6b656e207060008201527f7269636520666f7220746f206275792069740000000000000000000000000000602082015250565b6000613e8c603283612e65565b9150613e9782613e30565b604082019050919050565b60006020820190508181036000830152613ebb81613e7f565b9050919050565b7f4552433732313a206f776e657220717565727920666f72206e6f6e657869737460008201527f656e7420746f6b656e0000000000000000000000000000000000000000000000602082015250565b6000613f1e602983612e65565b9150613f2982613ec2565b604082019050919050565b60006020820190508181036000830152613f4d81613f11565b9050919050565b7f4552433732313a2062616c616e636520717565727920666f7220746865207a6560008201527f726f206164647265737300000000000000000000000000000000000000000000602082015250565b6000613fb0602a83612e65565b9150613fbb82613f54565b604082019050919050565b60006020820190508181036000830152613fdf81613fa3565b9050919050565b7f4e487b7100000000000000000000000000000000000000000000000000000000600052601260045260246000fd5b600061402082612df7565b915061402b83612df7565b92508261403b5761403a613fe6565b5b828204905092915050565b7f4572726f723a20507269636520746f6b656e2063616e27742030000000000000600082015250565b600061407c601a83612e65565b915061408782614046565b602082019050919050565b600060208201905081810360008301526140ab8161406f565b9050919050565b7f4552433732314d657461646174613a2055524920717565727920666f72206e6f60008201527f6e6578697374656e7420746f6b656e0000000000000000000000000000000000602082015250565b600061410e602f83612e65565b9150614119826140b2565b604082019050919050565b6000602082019050818103600083015261413d81614101565b9050919050565b600081905092915050565b600061415a82612e5a565b6141648185614144565b9350614174818560208601612e76565b80840191505092915050565b600061418c828561414f565b9150614198828461414f565b91508190509392505050565b7f4f776e61626c653a206e6577206f776e657220697320746865207a65726f206160008201527f6464726573730000000000000000000000000000000000000000000000000000602082015250565b6000614200602683612e65565b915061420b826141a4565b604082019050919050565b6000602082019050818103600083015261422f816141f3565b9050919050565b7f4552433732313a206f70657261746f7220717565727920666f72206e6f6e657860008201527f697374656e7420746f6b656e0000000000000000000000000000000000000000602082015250565b6000614292602c83612e65565b915061429d82614236565b604082019050919050565b600060208201905081810360008301526142c181614285565b9050919050565b7f4552433732313a207472616e73666572206f6620746f6b656e2074686174206960008201527f73206e6f74206f776e0000000000000000000000000000000000000000000000602082015250565b6000614324602983612e65565b915061432f826142c8565b604082019050919050565b6000602082019050818103600083015261435381614317565b9050919050565b7f4552433732313a207472616e7366657220746f20746865207a65726f2061646460008201527f7265737300000000000000000000000000000000000000000000000000000000602082015250565b60006143b6602483612e65565b91506143c18261435a565b604082019050919050565b600060208201905081810360008301526143e5816143a9565b9050919050565b60006143f782612df7565b915061440283612df7565b925082820390508181111561441a57614419613b02565b5b92915050565b600061442b82612df7565b915061443683612df7565b925082820190508082111561444e5761444d613b02565b5b92915050565b60008190508160005260206000209050919050565b60006020601f8301049050919050565b600082821b905092915050565b6000600883026144b67fffffffffffffffffffffffffffffffffffffffffffffffffffffffffffffffff82614479565b6144c08683614479565b95508019841693508086168417925050509392505050565b6000819050919050565b60006144fd6144f86144f384612df7565b6144d8565b612df7565b9050919050565b6000819050919050565b614517836144e2565b61452b61452382614504565b848454614486565b825550505050565b600090565b614540614533565b61454b81848461450e565b505050565b5b8181101561456f57614564600082614538565b600181019050614551565b5050565b601f8211156145b45761458581614454565b61458e84614469565b8101602085101561459d578190505b6145b16145a985614469565b830182614550565b50505b505050565b600082821c905092915050565b60006145d7600019846008026145b9565b1980831691505092915050565b60006145f083836145c6565b9150826002028217905092915050565b61460982612e5a565b67ffffffffffffffff811115614622576146216133c0565b5b61462c82546137c8565b614637828285614573565b600060209050601f83116001811461466a5760008415614658578287015190505b61466285826145e4565b8655506146ca565b601f19841661467886614454565b60005b828110156146a05784890151825560018201915060208501945060208101905061467b565b868310156146bd57848901516146b9601f8916826145c6565b8355505b6001600288020188555050505b505050505050565b60006040820190506146e76000830185612eea565b6146f46020830184612eea565b9392505050565b7f4552433732313a20617070726f766520746f2063616c6c657200000000000000600082015250565b6000614731601983612e65565b915061473c826146fb565b602082019050919050565b6000602082019050818103600083015261476081614724565b9050919050565b7f4552433732313a207472616e7366657220746f206e6f6e20455243373231526560008201527f63656976657220696d706c656d656e7465720000000000000000000000000000602082015250565b60006147c3603283612e65565b91506147ce82614767565b604082019050919050565b600060208201905081810360008301526147f2816147b6565b9050919050565b600061480482612df7565b915061480f83612df7565b92508261481f5761481e613fe6565b5b828206905092915050565b6000819050919050565b61484561484082612df7565b61482a565b82525050565b60008160601b9050919050565b60006148638261484b565b9050919050565b600061487582614858565b9050919050565b61488d61488882612fcd565b61486a565b82525050565b600061489f8285614834565b6020820191506148af828461487c565b6014820191508190509392505050565b600081519050919050565b600082825260208201905092915050565b60006148e6826148bf565b6148f081856148ca565b9350614900818560208601612e76565b61490981612ea0565b840191505092915050565b60006080820190506149296000830187612fdf565b6149366020830186612fdf565b6149436040830185612eea565b818103606083015261495581846148db565b905095945050505050565b60008151905061496f81612d68565b92915050565b60006020828403121561498b5761498a612d32565b5b600061499984828501614960565b91505092915050565b7f4552433732313a206d696e7420746f20746865207a65726f2061646472657373600082015250565b60006149d8602083612e65565b91506149e3826149a2565b602082019050919050565b60006020820190508181036000830152614a07816149cb565b9050919050565b7f4552433732313a20746f6b656e20616c7265616479206d696e74656400000000600082015250565b6000614a44601c83612e65565b9150614a4f82614a0e565b602082019050919050565b60006020820190508181036000830152614a7381614a37565b905091905056fea264697066735822122018f483dab30ada65432637f6ad859d3c44246fbed2c54253b8e82e714ed1da4464736f6c63430008130033",
  "linkReferences": {},
  "deployedLinkReferences": {}
}